S015000030345F554152545F6173796E632E7372656393
S11300000C9434000C9451000C9451000C94510045
S11300100C9451000C9451000C9451000C94510018
S11300200C9451000C9451000C9451000C94510008
S11300300C9451000C9451000C9451000C945100F8
S11300400C9451000C9451000C9453000C945100E6
S11300500C9451000C9451000C9451000C945100D8
S11300600C9451000C94510011241FBECFEFD8E022
S1130070DEBFCDBF11E0A0E0B1E0E8EAF2E002C0EB
S113008005900D92A031B107D9F721E0A0E1B1E0CC
S113009001C01D92AB31B207E1F70E9477000C94C6
S11300A052010C9400001F920F920FB60F9211246C
S11300B02F933F934F935F936F937F938F939F936C
S11300C0AF93BF93EF93FF930E948800FF91EF914A
S11300D0BF91AF919F918F917F916F915F914F915C
S11300E03F912F910F900FBE0F901F90189500E035
S11300F020E835E240E050E060E072E18AE790E019
S11301000E94BA00789481E091E00E94F300FFCF4E
S113011080910001882369F18091C600209110012B
S1130120309111012930310524F0109211011092FF
S113013010018A3011F08D3071F4E0911001F091CA
S11301401101EE5EFE4F1082109200011092110117
S11301501092100108952091100130911101F901BC
S1130160EE5EFE4F80832F5F3F4F3093110120934B
S113017010010895CF92DF92EF92FF920F936B01DB
S11301807C01CA01B901002341F022E02093C000A0
S113019028E030E040E050E004C020E130E040E0FE
S11301A050E00E9406019B01AC01C701B6010E9408
S11301B01601215031093093C5002093C400E1ECAD
S11301C0F0E088E180838081806880830F91FF90D4
S11301D0EF90DF90CF9008959091C00095FFFCCFF1
S11301E08093C60008950F931F93CF938C01C0E0B2
S11301F003C00E94EC00CF5FF801EC0FF11D808179
S11302008111F7CFCF911F910F910895DB018F9347
S11302109F930E943801BF91AF91A29F800D911DC1
S1130220A39F900DB29F900D11240895A1E21A2E60
S1130230AA1BBB1BFD010DC0AA1FBB1FEE1FFF1F86
S1130240A217B307E407F50720F0A21BB30BE40BD6
S1130250F50B661F771F881F991F1A9469F760951D
S11302607095809590959B01AC01BD01CF010895D7
S11302700E944301A59F900DB49F900DA49F800DF3
S1130280911D11240895A29FB001B39FC001A39FA3
S1130290700D811D1124911DB29F700D811D1124BB
S10B02A0911D0895F894FFCFAD
S11302A80153746172742075702E2E2E0A0D00008D
S9030000FC
