S00D0000636F6465322E737265634A
S11300000C9434000C9446000C9446000C94460066
S11300100C9446000C9446000C9446000C94460044
S11300200C9446000C9446000C9446000C94460034
S11300300C9446000C9446000C9448000C94460022
S11300400C9446000C9446000C9446000C94460014
S11300500C9446000C9446000C9446000C94460004
S11300600C9446000C94460011241FBECFEFD8E038
S1130070DEBFCDBF21E0A0E0B1E001C01D92A830F9
S1130080B207E1F70E94B7000C94D5000C9400006D
S11300901F920F920FB60F9211248F938091020139
S11300A0882329F08091020181508093020180917C
S11300B00701882329F0809107018150809307016B
S11300C080910601882329F0809106018150809354
S11300D006018F910F900FBE0F901F90189580917D
S11300E00501882331F080910201869586958093DD
S11300F002019091010181E089278093010185B972
S113010008958091000181508093000181110AC0FB
S113011084E0809300019091010182E0892780931B
S1130120010185B9089589B180958078809305018E
S113013008958FE084B915B81AB892E090936E00D0
S11301408AEF87BD94BD93E095BD9FEF9093010125
S1130150809302018DE7809307018CE3809306016D
S113016084E08093000110920501789408950E9420
S1130170990080910201811105C08AEF80930201E8
S11301800E946F0080910701811105C08DE7809363
S113019007010E948100809106018111EACF8CE35E
S11101A0809306010E949300E4CFF894FFCFF1
S9030000FC
