S013000030345F4C43445F313630322E7372656353
S11300000C9434000C943E000C943E000C943E007E
S11300100C943E000C943E000C943E000C943E0064
S11300200C943E000C943E000C943E000C943E0054
S11300300C943E000C943E000C943E000C943E0044
S11300400C943E000C943E000C943E000C943E0034
S11300500C943E000C943E000C943E000C943E0024
S11300600C943E000C943E0011241FBECFEFD8E048
S1130070DEBFCDBF0E94E7000C9425010C94000064
S113008098B19E7F98B98BB998B1926098B99CE069
S11300909A95F1F7000098B19D7F98B99CE09A95E4
S11300A0F1F700008295807F8BB988B1826088B9AE
S11300B08CE08A95F1F7000088B18D7F88B99CE0C7
S11300C09A95F1F70000089598B19E7F98B98BB97D
S11300D088B1826088B98CE08A95F1F7000088B114
S11300E08D7F88B98CE08A95F1F70000089598B166
S11300F0916098B98BB998B1926098B99CE09A953F
S1130100F1F7000098B19D7F98B99CE09A95F1F7BA
S113011000008295807F8BB988B1826088B98CE0B9
S11301208A95F1F7000088B18D7F88B99CE09A9593
S1130130F1F70000089587B1836087B98AB1806FB1
S11301408AB9089587EA91E60197F1F700C00000A3
S113015080E30E94640081EE94E00197F1F700C00F
S1130160000080E30E94640091E29A95F1F7000098
S113017080E30E94640081E28A95F1F7000080E246
S11301800E94640091E29A95F1F7000088E20E94CF
S1130190400081E18A95F1F700C08CE00E944000A4
S11301A091E19A95F1F700C081E00E9440008DEE44
S11301B092E00197F1F700C0000086E00E94400041
S11301C081EC93E30197F1F700C0000008950E94C9
S11301D09B000E94A2008CE40E94770083E40E94AA
S11301E0770084E40E94770080E20E94770081E334
S11301F00E94770086E30E94770080E30E947700E4
S113020082E30E94770080EC0E94400084E30E9415
S113021077008DE20E94770082E60E94770089E6EB
S11302200E94770084E70E94770080E20E947700B2
S11302308DE60E9477008FE60E94770084E60E9494
S1110240770085E60E947700FFCFF894FFCF89
S9030000FC
