S012000030315F54696D65725F302E73726563C2
S11300000C9434000C943E000C943E000C943E007E
S11300100C943E000C943E000C943E000C943E0064
S11300200C943E000C943E000C943E000C943E0054
S11300300C943E000C943E000C9440000C943E0042
S11300400C943E000C943E000C943E000C943E0034
S11300500C943E000C943E000C943E000C943E0024
S11300600C943E000C943E0011241FBECFEFD8E048
S1130070DEBFCDBF0E945F000C9465000C940000AD
S11300801F920F920FB60F9211248F939F939BB1DF
S113009081E089278BB99F918F910F900FBE0F90AC
S11300A01F9018958AB181608AB9089582E084BD51
S11300B091E095BD9FE497BD80936E0008950E94E2
S11100C052000E9456007894FFCFF894FFCFB0
S9030000FC
