S010000030305F436865636B2E7372656377
S11300000C9434000C9446000C9446000C94460066
S11300100C9446000C9446000C9446000C94460044
S11300200C9446000C9446000C9446000C94460034
S11300300C9446000C9446000C9448000C94460022
S11300400C9446000C9446000C9446000C94460014
S11300500C9446000C9446000C9446000C94460004
S11300600C9446000C94460011241FBECFEFD8E038
S1130070DEBFCDBF21E0A0E0B1E001C01D92A430FD
S1130080B207E1F70E9483000C9494000C940000E2
S11300901F920F920FB60F9211248F939F9380910A
S11300A0000190910101892B49F080910001909108
S11300B00101019790930101809300019F918F9119
S11300C00F900FBE0F901F9018959BB181E0892768
S11300D08BB9089583E084B991E09AB992E0909342
S11300E06E002CE727BD94BD85BD88EE93E0909308
S11300F001018093000184EF91E0909303018093C8
S11301000201789408950E946A0080910001909100
S11301100101892BD1F788EE93E09093010180933C
S10F012000010E946500F1CFF894FFCFAD
S9030000FC
