S0100000436865636B3634342E7372656398
S11300000C9438000C944A000C944A000C944A0056
S11300100C944A000C944A000C944A000C944A0034
S11300200C944A000C944A000C944A000C944A0024
S11300300C944A000C944A000C944A000C944A0014
S11300400C944C000C944A000C944A000C944A0002
S11300500C944A000C944A000C944A000C944A00F4
S11300600C944A000C944A000C944A000C944A00E4
S113007011241FBECFEFD0E1DEBFCDBF21E0A0E051
S1130080B1E001C01D92A430B207E1F70E949800CC
S11300900C94B7000C9400001F920F920FB60F92AD
S11300A011248F939F9380910001909101010297F5
S11300B048F0809100019091010101979093010112
S11300C0809300018091020190910301029748F00E
S11300D08091020190910301019790930301809311
S11300E002019F918F910F900FBE0F901F90189552
S11300F09BB181E089278BB908959BB182E0892760
S11301008BB908958FEF8AB982E080936E0099EFDE
S113011097BD84BD83E085BD85EF91E09093010197
S113012080930001909303018093020178940895D1
S11301300E9482008091000190910101019741F495
S113014085EF91E090930101809300010E94780073
S11301508091020190910301019761F785EF91E08D
S113016090930301809302010E947D00E3CFF894F1
S1050170FFCFBB
S9030000FC
