S018000054696D65724578616D706C65436F64652E73726563C4
S11300000C9438000C9455000C9455000C94550035
S11300100C9455000C9455000C9455000C94550008
S11300200C9455000C9455000C9455000C945500F8
S11300300C9455000C9455000C9455000C945500E8
S11300400C9450010C9455000C9455000C945500DC
S11300500C9455000C9455000C9455000C945500C8
S11300600C9455000C9455000C9455000C945500B8
S113007011241FBECFEFD0E1DEBFCDBF11E0A0E061
S1130080B1E0E2EEFAE002C005900D92A433B107AC
S1130090D9F721E0A4E3B1E001C01D92A739B2076A
S11300A0E1F70E9446020C946F050C94000084E072
S11300B08093C40088E18093C1000895CF93C82F32
S11300C0873069F4209195013091960147E050E022
S11300D061E070E08EE091E00E9473020BC08A3010
S11300E019F48DE00E945E008091C00085FFFCCF72
S11300F0C093C60080E090E0CF910895EF92FF9204
S11301000F931F93CF93DF93209184013091850146
S1130110232B09F0A3C08C01C4E3D1E09091C0006B
S11301209923E4F78091C00084FDABC08091C000A6
S113013083FDAAC08091C6008D3009F48AE08A301C
S113014059F48883B8010E945E0084E391E090939F
S113015085018093840182C0893009F480E290EEA5
S1130160980F9F3510F0803A98F091E0C338D90782
S113017029F4B80187E00E945E00D0CF7E01EFEF42
S1130180EE1AFE0A8883B8010E945E00E701C6CF1A
S1130190823119F130F4833009F479C0883049F0A0
S11301A0BDCF873109F44EC08F3719F08531B9F1CD
S11301B0B5CFF1E0C433DF0709F008F4AFCFB801DD
S11301C088E00E945E00B80180E20E945E00B801EF
S11301D088E00E945E002197A1CFB8018DE00E94C3
S11301E05E000F2EF4E3EF2EF1E0FF2EF02D06C09B
S11301F0B801F70181917F010E945E00EC16FD06B3
S1130200B8F38CCFB80188E00E945E00B80180E2A8
S11302100E945E00B80188E00E945E002197F1E030
S1130220C433DF0709F070F779CFB80188E00E9482
S11302305E00B80180E20E945E00B80188E00E947E
S11302405E00219781E0C433D80709F008F466CF33
S1130250FE0131978081803241F760CFE0918401C3
S1130260F0918501CF0101969093850180938401DB
S113027080818A3021F4109285011092840190E0EB
S113028008C08EEF9FEF05C08FEF9FEF02C08FEF86
S11302909FEFDF91CF911F910F91FF90EF90089501
S11302A01F920F920FB60F9211248F939F93AF93C7
S11302B0BF938091870190918801A0918901B091A9
S11302C08A010196A11DB11D809387019093880135
S11302D0A0938901B0938A0180918B0190918C0144
S11302E0029748F080918B0190918C010197909333
S11302F08C0180938B0180918F01909190010297E2
S113030048F080918F019091900101979093900112
S113031080938F0180918D0190918E01029748F016
S113032080918D0190918E01019790938E0180931D
S11303308D01BF91AF919F918F910F900FBE0F9040
S11303401F90189583E084B985B982E08AB990E852
S11303509BB980936E0097E497BD84BD84E085BD0E
S113036085EF91E090938C0180938B018BEF90E06B
S11303709093900180938F018DE390E090938E0190
S113038080938D01109286010E945700E1E9F1E00B
S113039080E091E095838483918380839383828337
S11303A09C014CE050E061E070E086E191E00E9445
S11303B073027894089585EF91E090938C01809373
S11303C08B0195B181E0892785B98091870190914E
S11303D08801A0918901B0918A01E1E9F1E02281CB
S11303E03381BF93AF939F938F9383E291E09F9365
S11303F08F933F932F930E9461028DB79EB7089607
S11304000FB6F8949EBF0FBE8DBF089580918601EC
S1130410882319F08EE790E002C08BEF90E0909370
S1130420900180938F0195B182E0892785B98091ED
S1130430870190918801A0918901B0918A01E1E935
S1130440F1E022813381BF93AF939F938F938BE22B
S113045091E09F938F933F932F930E9461028DB7F6
S11304609EB708960FB6F8949EBF0FBE8DBF089531
S11304708DE390E090938E0180938D0189B18095F6
S1130480881F8827881F8093860108950E94A201EF
S113049080918B0190918C01019711F40E94DB01F2
S11304A080918F0190919001019711F40E940602AE
S11304B080918D0190918E01019751F70E9438022D
S11304C0E7CFA0E0B0E0E7E6F2E00C944805AE0127
S11304D0475F5F4F6F8178858D819E810E94A7025F
S11304E0E2E00C946405A0E0B0E0E9E7F2E00C94EB
S11304F03E055B014A017901D90113962C9121FF34
S11305001DC0C0E0D0E0C815D905D9F08C016C013C
S1130510CA0CDB1CC8010C151D0571F00F5F1F4FC1
S1130520D7011896ED91FC911997B701DC018C91D4
S11305300995892B79F305C02196E5CF80E090E0F9
S113054001C0CE01CDB7DEB7ECE00C945A05ABE0A8
S1130550B0E0EDEAF2E00C9438056C017B018A010D
S1130560FC0117821682838181FFCCC1CE010196E2
S11305703C01F6019381F70193FD859193FF8191ED
S11305807F01882309F4BAC1853239F493FD85913A
S113059093FF81917F01853229F4B60190E00E9496
S11305A09E04E7CF912C212C312CFFE1F315D8F0D8
S11305B08B3279F038F4803279F08332A1F4232D30
S11305C020611DC08D3261F0803369F4232D2160D8
S11305D016C0832D8260382EE32DE4603E2E2AC09F
S11305E0F32DF8601DC037FC2DC020ED280F2A30F4
S11305F040F08E32B9F436FC81C1232D2064322EB2
S113060019C036FE06C08AE0989E200D1124922E51
S113061011C0EAE02E9E200D1124222EF32DF0624B
S11306203F2E08C08C3621F4832D8068382E02C0FA
S1130630883641F4F70193FD859193FF81917F0101
S11306408111B3CF982F9F7D9554933028F40C5F7C
S11306501F4F9FE399830DC0833631F0833771F0C8
S1130660833509F059C021C0F801808189830E5F68
S11306701F4F88248394912C530113C02801F2E066
S11306804F0E511CF801A080B18036FE03C0692DC5
S113069070E002C06FEF7FEFC5010E9493044C012C
S11306A08201F32DFF773F2E16C0280122E0420E6F
S11306B0511CF801A080B18036FE03C0692D70E0A2
S11306C002C06FEF7FEFC5010E9488044C01F32D37
S11306D0F0683F2E820133FC1BC0822D90E0881607
S11306E09906B0F4B60180E290E00E949E042A9438
S11306F0F4CFF50137FC859137FE81915F01B60196
S113070090E00E949E0421102A9421E0821A91080C
S11307108114910471F7E8C0843611F0893641F5EB
S1130720F80137FE07C060817181828193810C5F7B
S11307301F4F08C060817181072E000C880B990B34
S11307400E5F1F4FF32DFF763F2E97FF09C0909544
S11307508095709561957F4F8F4F9F4FF0683F2E26
S11307602AE030E0A3010E94DA04882E861845C0EE
S1130770853731F4232D2F7EB22E2AE030E025C0B8
S1130780932D997FB92E8F36C1F018F4883579F0FE
S1130790B5C0803719F0883721F0B0C0E92FE06187
S11307A0BE2EB4FE0DC0FB2DF460BF2E09C034FE76
S11307B00AC0292F2660B22E06C028E030E005C00A
S11307C020E130E002C020E132E0F801B7FE07C0CA
S11307D060817181828193810C5F1F4F06C06081AB
S11307E0718180E090E00E5F1F4FA3010E94DA0444
S11307F0882E8618FB2DFF773F2E36FE0DC0232D45
S11308002E7FA22E891458F434FE0BC032FC09C08A
S1130810832D8E7EA82E05C0B82CA32C03C0B82C23
S113082001C0B92CA4FE0FC0FE01E80DF11D8081AA
S1130830803321F49A2D997EA92E09C0A2FE06C008
S1130840B394B39404C08A2D867809F0B394A3FCBE
S113085011C0A0FE06C0B21488F4280C922C9B1878
S11308600EC0B21460F4B60180E290E00E949E04CF
S1130870B394F7CFB21418F42B1802C0982C212C7F
S1130880A4FE10C0B60180E390E00E949E04A2FE84
S113089017C0A1FC03C088E790E002C088E590E09F
S11308A0B6010CC08A2D867859F0A1FE02C08BE2F5
S11308B001C080E2A7FC8DE2B60190E00E949E0494
S11308C0891438F4B60180E390E00E949E049A945F
S11308D0F7CF8A94F301E80DF11D8081B60190E011
S11308E00E949E048110F5CF222009F442CEB60165
S11308F080E290E00E949E042A94F6CFF60186815D
S1130900978102C08FEF9FEF2B96E2E10C94540580
S1130910FC010590615070400110D8F780959095C6
S11309208E0F9F1F0895FC016150704001900110CB
S1130930D8F7809590958E0F9F1F08950F931F935E
S1130940CF93DF93FB01238121FD03C08FEF9FEF42
S11309502CC022FF16C0468157812481358142175D
S1130960530744F4A081B1819D012F5F3F4F318330
S113097020838C93268137812F5F3F4F37832683D3
S113098014C08B01EC01FB010084F185E02D099575
S1130990892BE1F6D80116968D919C9117970196B3
S11309A017969C938E931697CE01DF91CF911F914A
S11309B00F910895FA01AA27283051F1203181F1CD
S11309C0E8946F936E7F6E5F7F4F8F4F9F4FAF4F53
S11309D0B1E03ED0B4E03CD0670F781F891F9A1F66
S11309E0A11D680F791F8A1F911DA11D6A0F711D1A
S11309F0811D911DA11D20D009F468943F912AE026
S1130A00269F11243019305D3193DEF6CF0108950D
S1130A10462F4770405D4193B3E00FD0C9F7F6CF3E
S1130A20462F4F70405D4A3318F0495D31FD405206
S1130A30419302D0A9F7EACFB4E0A695979587959C
S1130A4077956795BA95C9F700976105710508957B
S1130A509B01AC010A2E0694579547953795279527
S1130A60BA95C9F7620F731F841F951FA01D0895BF
S1130A702F923F924F925F926F927F928F929F92AA
S1130A80AF92BF92CF92DF92EF92FF920F931F9398
S1130A90CF93DF93CDB7DEB7CA1BDB0B0FB6F89449
S1130AA0DEBF0FBECDBF09942A88398848885F8489
S1130AB06E847D848C849B84AA84B984C884DF80FA
S1130AC0EE80FD800C811B81AA81B981CE0FD11DDE
S1130AD00FB6F894DEBF0FBECDBFED010895F894B4
S1050AE0FFCF42
S1130AE200000003000000005E007E0000002A7285
S1130AF2696E672A0A005374617274696E672E2ED6
S1130B022E0A0074313A256C750A0074323A256C47
S1070B12750A00005C
S9030000FC
