S017000030325F4D756C74697461736B696E672E7372656350
S11300000C9434000C9446000C9446000C94460066
S11300100C9446000C9446000C9446000C94460044
S11300200C9446000C9446000C9446000C94460034
S11300300C9446000C9446000C9448000C94460022
S11300400C9446000C9446000C9446000C94460014
S11300500C9446000C9446000C9446000C94460004
S11300600C9446000C94460011241FBECFEFD8E038
S1130070DEBFCDBF21E0A0E0B1E001C01D92A630FB
S1130080B207E1F70E94CE000C94EE000C9400003D
S11300901F920F920FB60F9211248F938091020139
S11300A0882329F08091020181508093020180917C
S11300B00501882329F08091050181508093050171
S11300C080910401882329F0809104018150809358
S11300D0040180910301882329F080910301815058
S11300E0809303018F910F900FBE0F901F9018956E
S11300F08AB187608AB98BB188608BB908958AEF19
S11301008093020184E68093050184E180930401D5
S11301108FE080930301089582E084BD93E095BD50
S11301209CE797BD80936E0008958AEF8093020147
S11301309BB181E089278BB9089584E680930501FA
S11301409BB182E089278BB90895809100018823AF
S113015011F08AE001C084E1809304019BB184E042
S113016089278BB908958FE0809303014B990EC0C2
S11301708091010181110AC091E090930101909155
S11301800001911101C081E0809300014B9B05C0E7
S11301908091010181111092010108950E9478005B
S11301A00E947F000E948C0078948091020181114A
S11301B002C00E94950080910501811102C00E9435
S11301C09D0080910401811102C00E94A5008091CC
S11301D003018111EACF0E94B300E7CFF894FFCF67
S9030000FC
